{
    "_format": "hh-sol-artifact-1",
    "contractName": "WavePortal",
    "sourceName": "contracts/WavePortal.sol",
    "abi": [
        {
            "inputs": [],
            "stateMutability": "nonpayable",
            "type": "constructor"
        },
        {
            "inputs": [],
            "name": "getTotalWaves",
            "outputs": [
                {
                    "internalType": "uint256",
                    "name": "",
                    "type": "uint256"
                }
            ],
            "stateMutability": "view",
            "type": "function"
        },
        {
            "inputs": [],
            "name": "getWavers",
            "outputs": [
                {
                    "internalType": "address[]",
                    "name": "",
                    "type": "address[]"
                }
            ],
            "stateMutability": "view",
            "type": "function"
        },
        {
            "inputs": [],
            "name": "wave",
            "outputs": [],
            "stateMutability": "nonpayable",
            "type": "function"
        }
    ],
    "bytecode": "0x608060405234801561001057600080fd5b5061003c604051806060016040528060298152602001610ba46029913961004160201b6103861760201c565b6101c4565b6100dd816040516024016100559190610142565b6040516020818303038152906040527f41304fac000000000000000000000000000000000000000000000000000000007bffffffffffffffffffffffffffffffffffffffffffffffffffffffff19166020820180517bffffffffffffffffffffffffffffffffffffffffffffffffffffffff83818316178352505050506100e060201b60201c565b50565b60008151905060006a636f6e736f6c652e6c6f679050602083016000808483855afa5050505050565b600061011482610164565b61011e818561016f565b935061012e818560208601610180565b610137816101b3565b840191505092915050565b6000602082019050818103600083015261015c8184610109565b905092915050565b600081519050919050565b600082825260208201905092915050565b60005b8381101561019e578082015181840152602081019050610183565b838111156101ad576000848401525b50505050565b6000601f19601f8301169050919050565b6109d1806101d36000396000f3fe608060405234801561001057600080fd5b50600436106100415760003560e01c8063635f29f8146100465780636fe15b44146100645780639a2cdc081461006e575b600080fd5b61004e61008c565b60405161005b91906106fb565b60405180910390f35b61006c6101e1565b005b61007661033b565b60405161008391906107dd565b60405180910390f35b606060005b600180549050811015610154576101416040518060400160405280600881526020017f257320776176656400000000000000000000000000000000000000000000000081525060018381548110610111577f4e487b7100000000000000000000000000000000000000000000000000000000600052603260045260246000fd5b9060005260206000200160009054906101000a900473ffffffffffffffffffffffffffffffffffffffff1661041f565b808061014c90610912565b915050610091565b5060018054806020026020016040519081016040528092919081815260200182805480156101d757602002820191906000526020600020905b8160009054906101000a900473ffffffffffffffffffffffffffffffffffffffff1673ffffffffffffffffffffffffffffffffffffffff168152602001906001019080831161018d575b5050505050905090565b60016000808282546101f3919061084d565b9250508190555060003390506001819080600181540180825580915050600190039060005260206000200160009091909190916101000a81548173ffffffffffffffffffffffffffffffffffffffff021916908373ffffffffffffffffffffffffffffffffffffffff1602179055506001600260008373ffffffffffffffffffffffffffffffffffffffff1673ffffffffffffffffffffffffffffffffffffffff16815260200190815260200160002060008282546102b2919061084d565b925050819055506103386040518060400160405280601e81526020017f2573206861732077617665642120285761766520636f756e743a20256429000081525082600260008573ffffffffffffffffffffffffffffffffffffffff1673ffffffffffffffffffffffffffffffffffffffff168152602001908152602001600020546104bb565b50565b600061037e6040518060400160405280601681526020017f5765206861766520256420746f74616c2077617665730000000000000000000081525060005461055a565b600054905090565b61041c8160405160240161039a919061071d565b6040516020818303038152906040527f41304fac000000000000000000000000000000000000000000000000000000007bffffffffffffffffffffffffffffffffffffffffffffffffffffffff19166020820180517bffffffffffffffffffffffffffffffffffffffffffffffffffffffff83818316178352505050506105f6565b50565b6104b7828260405160240161043592919061073f565b6040516020818303038152906040527f319af333000000000000000000000000000000000000000000000000000000007bffffffffffffffffffffffffffffffffffffffffffffffffffffffff19166020820180517bffffffffffffffffffffffffffffffffffffffffffffffffffffffff83818316178352505050506105f6565b5050565b6105558383836040516024016104d39392919061076f565b6040516020818303038152906040527f07c81217000000000000000000000000000000000000000000000000000000007bffffffffffffffffffffffffffffffffffffffffffffffffffffffff19166020820180517bffffffffffffffffffffffffffffffffffffffffffffffffffffffff83818316178352505050506105f6565b505050565b6105f282826040516024016105709291906107ad565b6040516020818303038152906040527f9710a9d0000000000000000000000000000000000000000000000000000000007bffffffffffffffffffffffffffffffffffffffffffffffffffffffff19166020820180517bffffffffffffffffffffffffffffffffffffffffffffffffffffffff83818316178352505050506105f6565b5050565b60008151905060006a636f6e736f6c652e6c6f679050602083016000808483855afa5050505050565b600061062b8383610637565b60208301905092915050565b610640816108a3565b82525050565b61064f816108a3565b82525050565b600061066082610808565b61066a818561082b565b9350610675836107f8565b8060005b838110156106a657815161068d888261061f565b97506106988361081e565b925050600181019050610679565b5085935050505092915050565b60006106be82610813565b6106c8818561083c565b93506106d88185602086016108df565b6106e18161098a565b840191505092915050565b6106f5816108d5565b82525050565b600060208201905081810360008301526107158184610655565b905092915050565b6000602082019050818103600083015261073781846106b3565b905092915050565b6000604082019050818103600083015261075981856106b3565b90506107686020830184610646565b9392505050565b6000606082019050818103600083015261078981866106b3565b90506107986020830185610646565b6107a560408301846106ec565b949350505050565b600060408201905081810360008301526107c781856106b3565b90506107d660208301846106ec565b9392505050565b60006020820190506107f260008301846106ec565b92915050565b6000819050602082019050919050565b600081519050919050565b600081519050919050565b6000602082019050919050565b600082825260208201905092915050565b600082825260208201905092915050565b6000610858826108d5565b9150610863836108d5565b9250827fffffffffffffffffffffffffffffffffffffffffffffffffffffffffffffffff038211156108985761089761095b565b5b828201905092915050565b60006108ae826108b5565b9050919050565b600073ffffffffffffffffffffffffffffffffffffffff82169050919050565b6000819050919050565b60005b838110156108fd5780820151818401526020810190506108e2565b8381111561090c576000848401525b50505050565b600061091d826108d5565b91507fffffffffffffffffffffffffffffffffffffffffffffffffffffffffffffffff8214156109505761094f61095b565b5b600182019050919050565b7f4e487b7100000000000000000000000000000000000000000000000000000000600052601160045260246000fd5b6000601f19601f830116905091905056fea2646970667358221220f3d6cbe3335c8cba1bb664b7b8e0e24839087bdd410caf6a4aeaad39ced5031964736f6c634300080000334265657020626f6f702c204920616d206120636f6e747261637420616e64204920616d20736d617274",
    "linkReferences": {},
    "deployedLinkReferences": {}
}